:100000000C94DE000C94FD000C94FD000C94FF0099
:100010000C94FD000C94FD000C94FD000C94FD006C
:100020000C94FD000C94FD000C94FD000C94FD005C
:100030000C94FD000C94FD000C94FD000C94FD004C
:100040000C94FD000C94FD000C94FD000C94FD003C
:100050000C94FD000C9415040C94FD000C94FD0010
:100060000C94FD000C94FD000C94FD000C94FD001C
:100070000C94FD000C941A050C94FD000C94FD00EA
:100080000C94FD000C94FD000C94FD00084AD73B35
:100090003BCE016E84BCBFFDC12F3D6C74319ABD57
:1000A00056833DDA3D00C77F11BED9E4BB4C3E917B
:1000B0006BAAAABE000000803F006E616E00696EF0
:1000C000660000407A10F35A00A0724E1809001022
:1000D000A5D4E80000E87648170000E40B540200BD
:1000E00000CA9A3B000000E1F505000080969800E8
:1000F000000040420F000000A08601000000102711
:1001000000000000E80300000000640000000000A0
:100110000A00000000000100000000002C76D888D2
:10012000DC674F0823DFC1DFAE59E1B1B796E5E3E5
:10013000E453C63AE651997696E8E6C28426EB89FE
:100140008C9B62ED407C6FFCEFBC9C9F40F2BAA59B
:100150006FA5F490055A2AF75C936B6CF9676DC133
:100160001BFCE0E40D47FEF520E6B500D0ED902E37
:100170000300943577050080841E080000204E0A95
:10018000000000C80C333333330F986E12831141D3
:10019000EF8D2114893BE65516CFFEE6DB18D1849E
:1001A0004B381BF77C1D901DA4BBE42420328472C5
:1001B0005E228100C9F124ECA1E53D2711241FBE78
:1001C000CFEFD0E4DEBFCDBF11E0A0E0B1E0E8EEBC
:1001D000FEE100E00BBF02C007900D92A031B10715
:1001E000D9F721E0A0E1B1E001C01D92A735B20727
:1001F000E1F70E941F060C94720F0C9400001F92EE
:100200000F920FB60F9211248F9381E0809310010B
:100210008F910F900FBE0F901F90189508950F9318
:100220001F93CF93DF93182F062FEA0161E00E94FE
:10023000B203811117C0802F0E94DE03811112C00A
:100240008FE99FE00197F1F700C0000060E0812F87
:100250000E94B203811106C00E94070488830E9495
:10026000DA0380E0DF91CF911F910F910895BF9243
:10027000CF92DF92EF92FF920F931F93CF93DF9372
:1002800000D0CDB7DEB7B82E6B017A018901AE017F
:100290004E5F5F4F63E40E940F01882311F08FEFE0
:1002A00049C0AE014F5F5F4F64E48B2D0E940F0188
:1002B0008111F5CFEA81F0E0FE2FEE278981E82B4E
:1002C000D601ED93FC93AE014E5F5F4F65E48B2D3D
:1002D0000E940F018111E3CFAE014F5F5F4F66E4D3
:1002E0008B2D0E940F018111DACF6A8170E0762F89
:1002F00066278981682BF70171836083AE014E5FA9
:100300005F4F67E48B2D0E940F018111C8CFAE01B2
:100310004F5F5F4F68E48B2D0E940F018111BFCFAB
:100320008A8190E0982F88272981822BD8018D938C
:100330009C9380E00F900F90DF91CF911F910F91D0
:10034000FF90EF90DF90CF90BF900895CF93DF9311
:10035000D62FC42F61E00E94B203811113C08D2FEC
:100360000E94DE03882311F0880F0CC08C2F0E949E
:10037000DE03982F882319F0880F890F03C00E948D
:10038000DA0380E0DF91CF910895EF92FF920F930F
:100390001F93CF93DF93C82FD62F8A01F22E61E0EF
:1003A0000E94B203811122C08D2F0E94DE038111B1
:1003B0001DC060E08C2F0E94B203811117C0FA9417
:1003C000E02EC02FD12F8C2F8E198F1528F481E0AD
:1003D0000E9407048993F7CFE801CF0DD11D80E07B
:1003E0000E94070488830E94DA0380E0DF91CF91A6
:1003F0001F910F91FF90EF9008958F929F92AF926F
:10040000BF92CF92DF92EF92FF920F931F93CF9301
:10041000DF93D82FC62F7A01A22E61E00E94B2038B
:1004200081113EC08C2F0E94DE03811139C060E033
:100430008D2F0E94B203811133C0B12C8501000FB2
:10044000111F01501109812C912C892D90E08017EA
:1004500091079CF4E701C80DD11DC80DD11DD880AE
:10046000C12C81E00E9407049601282BC9019983C1
:10047000888390FC83949394E8CFE501C150D048E1
:10048000CC0FDD1FCE0DDF1D00E010E0188180E0F5
:100490000E940704082B198308830E94DA0380E076
:1004A000DF91CF911F910F91FF90EF90DF90CF9050
:1004B000BF90AF909F908F900895EF92FF920F930F
:1004C0001F93CF93DF93C62F142FF52E022F61E0D9
:1004D0000E94B203811115C08C2F0E94DE0381118E
:1004E00010C0E12EC12FDF2D8C2F8E19801730F414
:1004F00089910E94DE038823B9F303C00E94DA03C6
:1005000080E0DF91CF911F910F91FF90EF900895C0
:10051000CF93DF9300D000D000D0CDB7DEB7798382
:100520006A835B834C833D832E8326E0AE014F5F5D
:100530005F4F63E10E945D0226960FB6F894DEBF1E
:100540000FBECDBFDF91CF910895FF920F931F9300
:10055000CF93DF9300D000D000D0CDB7DEB7F82E18
:1005600002E310E09E012F5F3F4FAE014D5F5F4FF2
:10057000BE016B5F7F4F8F2D0E9437018FE19EE49C
:100580000197F1F700C00000015011090115110594
:1005900049F700E011E09E012F5F3F4FAE014D5F34
:1005A0005F4FBE016B5F7F4F8F2D0E94370181111E
:1005B0001FC08FE19EE40197F1F700C000000150D9
:1005C00011090115110539F729813A8131952195D4
:1005D00031094B815C815195419551096D817E8135
:1005E0007195619571098F2D0E94880280E001C08C
:1005F0008FEF26960FB6F894DEBF0FBECDBFDF910A
:10060000CF911F910F91FF900895CF93DF93D82F33
:100610000E94A10340E86BE68D2F0E94A601C82F1F
:100620002FEF89EF90E0215080409040E1F700C02B
:10063000000040E06BE68D2F0E94A601C82B8FE9D9
:100640009FE00197F1F700C0000041E06AE18D2FC3
:100650000E94A601C82B44E069E18D2F0E94A601EB
:10066000C82B40E16BE18D2F0E94A601C82B8D2F76
:100670000E94A502C82B48E06BE18D2F0E94A601C5
:10068000C82B40E06CE18D2F0E94A601C82B48E4E6
:1006900063E28D2F0E94A601C82B40E167E38D2FF6
:1006A0000E94A601C82B8FE99FE00197F1F700C0D7
:1006B000000041E068E38D2F0E94A601C82B44E4AE
:1006C0006AE68D2F0E94A601C82B8FE39FE1019758
:1006D000F1F700C0000044E06AE68D2F0E94A601F9
:1006E0008C2BDF91CF9108958AB180638AB984B150
:1006F000806C84B992EF9093800089E180938100AF
:1007000090939000809391008FEF93E090938700F7
:100710008093860090939700809396008FEF91E0EE
:10072000909389008093880090938B0080938A0037
:10073000909399008093980090939B0080939A00E7
:100740000895E4E6F0E080818F778083E9EBF0E0C4
:10075000808183708083E8EBF0E082E0808388E42E
:100760008083089594EA9093BC009091BC0097FF19
:10077000FCCF9091B900987F983011F09031B1F48E
:1007800091E0611190E0880F892B8093BB0084E891
:100790008093BC008091BC0087FFFCCF8091B900A2
:1007A000887F883129F0803421F402C0892F089590
:1007B00080E0089584E98093BC0008958093BB0095
:1007C00084E88093BC008091BC0087FFFCCF8091BF
:1007D000B900887F883209F480E008951F93CF9391
:1007E000DF93EB01142F61E00E94B203115038F047
:1007F000FE01E10FF11D80810E94DE03F7CF84E945
:100800008093BC0080E0DF91CF911F9108958823F1
:1008100011F084EC01C084E88093BC008091BC009E
:1008200087FFFCCF8091BB0008951F920F920FB6F7
:100830000F9211240BB60F928F939F93EF93FF9318
:10084000E0913501F0E0E95CFE4F80818093C600C5
:100850008091350190E001968F7199278093350141
:100860009091350180913601981305C08091C100A7
:100870008F7D8093C10010923401FF91EF919F9181
:100880008F910F900BBE0F900FBE0F901F90189579
:10089000909164009D7F909364001092C50090E158
:1008A0009093C4009091C00092609093C000882300
:1008B00021F08091C100886003C08091C100877FD2
:1008C0008093C1008091C100662311F0806101C056
:1008D0008F7E8093C10086E08093C2008FE99FE005
:1008E0000197F1F700C000000895882321F080915E
:1008F000C100806803C08091C1008F778093C100E0
:100900000895882321F08091C100806403C0809104
:10091000C1008F7B8093C1000895909134019111A3
:10092000FCCFE0913601F0E0E95CFE4F80838091DE
:10093000C1008F7D8093C1008091360190E00196C7
:100940008F719927809336019091360180913501FE
:10095000981303C081E0809334018091C1008062CC
:100960008093C100089541E0FC012191CF01222331
:1009700031F1309134013111FCCFE0913601F0E0DA
:10098000E95CFE4F20832091C1002F7D2093C100A0
:100990002091360130E02F5F3F4F2F713327209396
:1009A00036013091360120913501321302C0409357
:1009B00034012091C10020622093C100D5CF089559
:1009C0008F708A3010F0895C01C0805D0C948D04BA
:1009D000CF93C82F82958F700E94E0048C2FCF9107
:1009E0000C94E004CF93DF93EC018D2F82958F70F0
:1009F0000E94E0048D2F0E94E004CE0124E0969531
:100A000087952A95E1F70E94E0048C2FDF91CF9122
:100A10000C94E004CF92DF92EF92FF926B017C0185
:100A2000C7010E94F204C601FF90EF90DF90CF90C3
:100A30000C94F2041F920F920FB60F9211240BB672
:100A40000F928F939F93EF93FF93E0911201F0E049
:100A5000EC5EFE4F80818093CE008091120190E089
:100A600001968F71992780931201909112018091C4
:100A70001301981305C08091C9008F7D8093C90030
:100A800010921101FF91EF919F918F910F900BBEEA
:100A90000F900FBE0F901F901895909164009F7E4D
:100AA000909364001092CD0090E19093CC009091CF
:100AB000C80092609093C800882321F08091C900FB
:100AC000886003C08091C900877F8093C9008091AE
:100AD000C900662311F0806101C08F7E8093C90038
:100AE00086E08093CA008FE99FE00197F1F700C08C
:100AF00000000895882321F08091C900806803C018
:100B00008091C9008F778093C9000895882321F0D0
:100B10008091C900806403C08091C9008F7B80935D
:100B2000C9000895909111019111FCCFE09113013A
:100B3000F0E0EC5EFE4F80838091C9008F7D809352
:100B4000C9008091130190E001968F7199278093DD
:100B500013019091130180911201981303C081E059
:100B6000809311018091C90080628093C90008952B
:100B700041E0FC012191CF01222331F1309111019B
:100B80003111FCCFE0911301F0E0EC5EFE4F2083C9
:100B90002091C9002F7D2093C9002091130130E0DE
:100BA0002F5F3F4F2F713327209313013091130193
:100BB00020911201321302C0409311012091C9000B
:100BC00020622093C900D5CF08958F708A3010F02D
:100BD000895C01C0805D0C949205CF93C82F8295EB
:100BE0008F700E94E5058C2FCF910C94E505CF9373
:100BF000DF93EC018D2F82958F700E94E5058D2F7C
:100C00000E94E505CE0134E0969587953A95E1F787
:100C10000E94E5058C2FDF91CF910C94E505CF92D2
:100C2000DF92EF92FF926B017C01C7010E94F705F2
:100C3000C601FF90EF90DF90CF900C94F705CF9313
:100C4000DF93CDB7DEB7A5970FB6F894DEBF0FBE22
:100C5000CDBF81E084B988E60E9405030E94740339
:100C600060E081E00E9448042FE088E190E00FB648
:100C7000F894A895809360000FBE2093600078944C
:100C8000289A80E091E00E94B30481E0C12CD12C2D
:100C90007601312C9E012F5F3F4F39A328A393B1DA
:100CA00092FB222420F892FD1DC1813009F01AC167
:100CB000AE01415E5F4F6FE388E60E940F01182F7F
:100CC0008F8C912C982C8824AE01415E5F4F60E49C
:100CD00088E60E940F01812B382A8F8D882AAE0169
:100CE000415E5F4F6BE388E60E940F01382AAF8CAC
:100CF000B12CBA2CAA24AE01415E5F4F6CE388E6AA
:100D00000E940F01382A8F8DA82AAE01415E5F4FE5
:100D100065E488E60E940F01382A0F8D10E0102F3D
:100D20000027AE01415E5F4F66E488E60E940F0136
:100D3000382A8F8D082BB501882777FD8095982F4D
:100D40000E947F0C9B01AC01B401882777FD809540
:100D5000982F2AA33BA34CA35DA30E947F0C2AA13A
:100D60003BA14CA15DA10E948D0B2B013C01B80160
:100D7000882777FD8095982F0E947F0C23E836E125
:100D800040EA58E30E945F0D9B01AC01C701B60128
:100D90000E941A0B28E431EE4AE75FE30E945F0DE0
:100DA0006B017C0120E030E044E353E4C301B20175
:100DB0000E945F0D2BED3FE049E450E40E94E40BFC
:100DC0002AE037ED43EA5CE30E945F0D9B01AC0132
:100DD000C701B6010E941A0B6B017C0120E030E0D4
:100DE00040EA50E40E94540D87FF2EC020E030E01E
:100DF00040EA50ECC701B6010E94E00B181654F40B
:100E000020E030E0A901C701B6010E94E00B87FD98
:100E100007C020C0C12CD12C90EAE92E90ECF92E0D
:100E200020E030E046E953E4C701B60190580E9443
:100E30005F0D0E944C0C6F3F33E0730714F06EEFB0
:100E400073E080E090E019C0C12CD12C80EAE82E3C
:100E500080E4F82E20E030E046E953E4C701B60113
:100E60000E945F0D0E944C0CCB016F3FA3E07A07FC
:100E700014F08EEF93E060E070E07370709389007F
:100E800060938800937090938B0080938A00709396
:100E900099006093980090939B0080939A00C401FE
:100EA0000E94F20489E00E948D04C5010E94F204B0
:100EB00089E00E948D041F923F921F930F93A7E039
:100EC000B1E0BF93AF9339A13F9388A18F930E9464
:100ED000E50ECE0101960E94B3040FB6F894DEBF72
:100EE0000FBECDBFA895822DDACE2F923F924F92A2
:100EF0005F926F927F928F929F92AF92BF92CF92AA
:100F0000DF92EF92FF920F931F93CF93DF93CDB7B2
:100F1000DEB763970FB6F894DEBF0FBECDBF7C017E
:100F20001B016A01FC0117821682838181FF66C35F
:100F3000BE016F5F7F4F4B01F7019381F10193FD7C
:100F4000859193FF81911F01882309F453C3853252
:100F500039F493FD859193FF81911F01853239F416
:100F6000B70190E00E94B30E56016501E5CF10E095
:100F7000512C20E02032A0F48B3269F030F4803222
:100F800059F0833269F420612CC08D3239F08033FE
:100F900039F4216026C02260246023C0286021C06B
:100FA00027FD27C030ED380F3A3078F426FF06C011
:100FB000FAE01F9F300D1124132F13C06AE0569ED4
:100FC000300D1124532E20620CC08E3221F426FDE8
:100FD00011C3206406C08C3611F4206802C0883624
:100FE00041F4F10193FD859193FF81911F018111DE
:100FF000C1CF9BEB980F933018F42061805E06C040
:101000009BE9980F933008F0AAC12F7E26FF16E0C7
:101010002F73722E853621F4F22FF0647F2E08C0D4
:10102000863621F4622F6068762E02C011111150AD
:1010300077FE07C01C3348F444244394410E27E054
:101040000BC0183030F4212F06C027E04CE3442EAB
:1010500003C027E017E0412C560174E0A70EB11C35
:10106000F6016081718182819381042DA4010E9427
:10107000C50D6C01098100FF02C003FF06C071FCB1
:1010800007C072FC08C0612C08C03DE2632E05C099
:101090002BE2622E02C090E2692E802F8C7099F1B3
:1010A000662011F084E001C083E0851510F0512C1A
:1010B0000BC0581A73FC08C0B70180E290E00E9490
:1010C000B30E5A94C9F7F3CF662029F0B701862DE5
:1010D00090E00E94B30E03FD03C00EEB10E002C0CF
:1010E0000AEB10E0F72DF0717F2EF8018491882330
:1010F00009F476C271108052B70190E00E94B30EDD
:101100000F5F1F4FF2CF77FE0FC04C0C04FF04C0DF
:101110008A81813309F44A94141474F5F8E0F415C3
:1011200078F588E0482E2CC076FC2AC0812F90E00C
:101130008C159D059CF06CEFC6166FEFD60674F00B
:10114000772D7068772E0AC0E2E0F0E0EC0FFD1F0B
:10115000E10FF11D8081803319F411501111F4CF8A
:1011600077FE0EC044244394410E812F90E0C816B0
:10117000D9062CF41C1904C04424439401C010E087
:1011800077FE07C01C141D043CF496012F5F3F4FEF
:1011900005C025E030E002C021E030E0662011F01B
:1011A0002F5F3F4F112331F0412F50E04F5F5F4FD2
:1011B000240F351F452D50E02417350714F4521A1B
:1011C00001C0512C872D897049F4552039F0B701A1
:1011D00080E290E00E94B30E5A94F7CF662029F087
:1011E000B701862D90E00E94B30E73FC09C0552014
:1011F00039F0B70180E390E00E94B30E5A94F7CF24
:1012000077FE5FC09C2D8D2DD7FE02C090E080E060
:10121000692E782E40E050E0C601841991099D871F
:101220008C87960126193709280D391D812F90E0EA
:10123000EE27FF27E81BF90BFF87EE87FFEF6F16FE
:101240007F0669F4B7018EE290E02B8B3A8B488BD6
:10125000598B0E94B30E598948893A892B89C61443
:10126000D70454F06C857D85661577052CF4F9015B
:10127000E40FF51F818101C080E371E0671A7108F6
:101280004F5F5F4FEE85FF856E167F066CF0B701EE
:1012900090E02B8B3A8B488B598B0E94B30E2B8995
:1012A0003A8948895989CACF6C147D0439F49A81E6
:1012B000963318F4953311F404FF81E3B70190E0FD
:1012C0004BC08A81813309F00F7EB70190E00E9404
:1012D000B30E111105C074FE18C085E490E017C06C
:1012E000B7018EE290E00E94B30E82E06624639420
:1012F000680EF401E80FF11D8081B70190E00E94B3
:10130000B30E115041F3862DF1CF85E690E0B70181
:101310000E94B30ED7FC05C0C114D10439F404FFF8
:1013200005C0D194C194D1088DE201C08BE2B70110
:1013300090E00E94B30E80E36AE0C616D1042CF060
:101340008F5FFAE0CF1AD108F7CFB70190E00E9483
:10135000B30EB701C601C0960E94B30E41C18336D9
:1013600031F0833779F0833509F058C021C0560138
:1013700072E0A70EB11CF6018081898301E010E0C4
:10138000640114C05601F2E0AF0EB11CF601C0803A
:10139000D18026FF03C0612F70E002C06FEF7FEFA6
:1013A000C6012B8B0E94A80E8C012B892F7715C0AC
:1013B0005601F2E0AF0EB11CF601C080D18026FFCD
:1013C00003C0612F70E002C06FEF7FEFC6012B8B6F
:1013D0000E949D0E8C012B892068722E23FD1AC05D
:1013E000852D90E008171907A8F4B70180E290E076
:1013F0000E94B30E5A94F4CFF60177FC859177FEE4
:1014000081916F01B70190E00E94B30E51105A9480
:10141000015011090115110579F7E2C0843611F068
:10142000893651F5560127FF09C0F4E0AF0EB11C13
:10143000F60160817181828193810AC0F2E0AF0E72
:10144000B11CF60160817181882777FD8095982F06
:10145000022F0F7697FF08C0909580957095619543
:101460007F4F8F4F9F4F00682AE030E0A4010E9419
:10147000140FC82EC8183EC0022F853721F40F7EE6
:101480002AE030E01DC0097F8F3691F018F48835CE
:1014900059F0B0C0803719F0883711F0ABC0006147
:1014A00004FF09C0046007C024FF08C0066006C02E
:1014B00028E030E005C020E130E002C020E132E069
:1014C000560107FF09C0F4E0AF0EB11CF6016081C0
:1014D00071818281938108C0F2E0AF0EB11CF601E8
:1014E0006081718180E090E0A4010E94140FC82EF9
:1014F000C8180F7706FF0BC0202F2E7FC11650F49F
:1015000004FF0AC002FD08C0202F2E7E05C0DC2C7F
:10151000202F03C0DC2C01C0D12E24FF0DC0FE0102
:10152000EC0DF11D8081803311F4297E09C022FF6A
:1015300006C0D394D39404C0822F867809F0D39444
:1015400023FD13C020FF06C01C2DD51418F4150D63
:101550001D19D52CD51468F4B70180E290E02B8BCF
:101560000E94B30ED3942B89F5CFD51410F45D18D7
:1015700001C0512C24FF12C0B70180E390E02B8BF7
:101580000E94B30E2B8922FF17C021FF03C088E5FC
:1015900090E002C088E790E0B7010CC0822F867807
:1015A00059F021FD02C080E201C08BE227FD8DE2EF
:1015B000B70190E00E94B30EC11638F4B70180E382
:1015C00090E00E94B30E1150F7CFCA94F401EC0DD5
:1015D000F11D8081B70190E00E94B30EC110F5CFDC
:1015E000552009F4C2CCB70180E290E00E94B30E0E
:1015F0005A94F6CFF7018681978102C08FEF9FEF53
:1016000063960FB6F894DEBF0FBECDBFDF91CF91CA
:101610001F910F91FF90EF90DF90CF90BF90AF9010
:101620009F908F907F906F905F904F903F902F9002
:1016300008955058BB27AA270ED0FCC1EDD130F039
:10164000F2D120F031F49F3F11F41EF4BDC10EF42D
:10165000E095E7FBB3C1E92FFED180F3BA1762072B
:1016600073078407950718F071F49EF516C20EF4FF
:10167000E0950B2EBA2FA02D0B01B90190010C01A2
:10168000CA01A0011124FF27591B99F0593F50F4BA
:10169000503E68F11A16F040A22F232F342F442712
:1016A000585FF3CF469537952795A795F04053950A
:1016B000C9F77EF41F16BA0B620B730B840BBAF0DA
:1016C0009150A1F0FF0FBB1F661F771F881FC2F745
:1016D0000EC0BA0F621F731F841F48F48795779559
:1016E0006795B795F7959E3F08F0B3CF9395880F10
:1016F00008F09927EE0F9795879508958DD158F0AA
:1017000080E891E009F49EEF8ED128F040E851E0A6
:1017100059F45EEF09C058C1C0C1E92FE0789BD1F0
:1017200068F3092E052AC1F326173707480759071A
:1017300038F00E2E07F8E02569F0E025E0640AC0D5
:10174000EF6307F8009407FADB01B9019D01DC01A2
:10175000CA01AD01EF9347D06DD10AD05F915523F7
:1017600031F02BED3FE049E450FD49EC63CF0895A3
:10177000DF93DD27B92FBF7740E85FE31616170622
:1017800048075B0710F4D92F93D19F938F937F93D2
:101790006F93F8D1ECE8F0E01AD14CD12F913F9142
:1017A0004F915F9198D1DD2349F09058A2EA2AED3C
:1017B0003FE049EC5FE3D0785D274DDFDF913AC130
:1017C000D9D008F481E008950CD034C12CD140F078
:1017D00023D130F021F45F3F19F0F0C051115EC108
:1017E000F3C039D198F39923C9F35523B1F3951B6D
:1017F000550BBB27AA2762177307840738F09F5F32
:101800005F4F220F331F441FAA1FA9F333D00E2EA0
:101810003AF0E0E830D091505040E695001CCAF70D
:1018200029D0FE2F27D0660F771F881FBB1F2617D2
:1018300037074807AB07B0E809F0BB0B802DBF01A5
:10184000FF2793585F4F2AF09E3F510568F0B6C0BE
:1018500025C15F3FECF3983EDCF38695779567955D
:10186000B795F7959F5FC9F7880F911D9695879556
:1018700097F90895E1E0660F771F881FBB1F621775
:1018800073078407BA0720F0621B730B840BBA0B33
:10189000EE1F88F7E095089504D06894B111FEC05A
:1018A0000895E1D088F09F5790F0B92F9927B7514C
:1018B000A0F0D1F0660F771F881F991F1AF0BA9514
:1018C000C9F712C0B13081F0E8D0B1E00895E5C0A9
:1018D000672F782F8827B85F39F0B93FCCF386950A
:1018E00077956795B395D9F73EF490958095709567
:1018F00061957F4F8F4F9F4F0895E89409C097FBE4
:101900003EF490958095709561957F4F8F4F9F4FD6
:101910009923A9F0F92F96E9BB279395F69587951A
:1019200077956795B795F111F8CFFAF4BB0F11F4DD
:1019300060FF1BC06F5F7F4F8F4F9F4F16C0882384
:1019400011F096E911C0772321F09EE8872F762FBA
:1019500005C0662371F096E8862F70E060E02AF0FB
:101960009A95660F771F881FDAF7880F96958795E7
:1019700097F90895990F0008550FAA0BE0E8FEEFBC
:1019800016161706E807F907C0F012161306E40743
:10199000F50798F0621B730B840B950B39F40A263C
:1019A00061F0232B242B252B21F408950A2609F41A
:1019B000A140A6958FEF811D811D089597F99F671E
:1019C00080E870E060E008959FEF80EC0895DF9379
:1019D000CF931F930F93FF92EF92DF927B018C01C5
:1019E000689405C0DA2EEF0176D0FE01E894A59147
:1019F0002591359145915591AEF3EF012CDEFE0115
:101A00009701A801DA9479F7DF90EF90FF900F919A
:101A10001F91CF91DF91089500240A94161617069E
:101A200018060906089500240A94121613061406CF
:101A300005060895092E0394000C11F4882352F032
:101A4000BB0F40F4BF2B11F460FF04C06F5F7F4FEA
:101A50008F4F9F4F089557FD9058440F551F59F0D1
:101A60005F3F71F04795880F97FB991F61F09F3F8B
:101A700079F087950895121613061406551FF2CFB4
:101A80004695F1DF08C0161617061806991FF1CF04
:101A900086957105610508940895E894BB2766272B
:101AA0007727CB0197F9089565DF08F48FEF089544
:101AB0009B01AC0160E070E080E89FE385CE0BD035
:101AC000B9CFAADF28F0AFDF18F0952309F076CF61
:101AD0007BCF1124E3CFBFDFA0F3959FD1F3950F08
:101AE00050E0551F629FF001729FBB27F00DB11DA2
:101AF000639FAA27F00DB11DAA1F649F6627B00D32
:101B0000A11D661F829F2227B00DA11D621F739F1A
:101B1000B00DA11D621F839FA00D611D221F749F28
:101B20003327A00D611D231F849F600D211D822F6F
:101B3000762F6A2F11249F5750408AF0E1F08823B6
:101B40004AF0EE0FFF1FBB1F661F771F881F9150C3
:101B50005040A9F79E3F510570F030CF9FCF5F3FB7
:101B6000ECF3983EDCF3869577956795B795F795F6
:101B7000E7959F5FC1F7FE2B880F911D969587957E
:101B800097F908959B01AC019ACF283008F027E01F
:101B90003327DA01990F311D87FD916000966105A9
:101BA000710539F432602E5F3D9330E32A95E1F7F9
:101BB00008959F3F30F080387105610509F03C5F62
:101BC0003C5F3D93913008F08068911DDF93CF9387
:101BD0001F930F93FF92EF92192F987F9695E92FFD
:101BE00096959695E90FFF27E45EFE4F99273327D8
:101BF000EE24FF24A701E70105900894079428F438
:101C0000360FE71EF81E491F511D660F771F881FEC
:101C1000991F0694A1F70590079428F4E70EF81E83
:101C2000491F561FC11D770F881F991F661F0694F5
:101C3000A1F70590079428F4F80E491F561FC71FF7
:101C4000D11D880F991F661F771F0694A1F7059075
:101C5000079420F4490F561FC71FD81F990F661FFE
:101C6000771F881F0694A9F784911095177041F08B
:101C7000D695C79557954795F794E7941A95C1F768
:101C8000E2ECF0E06894159015913591659195918D
:101C900005907FE27395E118F10A430B560BC90BCF
:101CA000D009C0F7E10CF11E431F561FC91FD01DFC
:101CB0007EF4703311F48A95E6CFE894015030F049
:101CC000080F0AF40027021708F4202F2395022F8B
:101CD0007A3328F079E37D932A95E9F710C07D9354
:101CE0002A9589F6069497956795379517951794D1
:101CF000E118F10A430B560BC90BD00998F0239554
:101D00007E9173957A3308F070E37C932013B8F7D3
:101D10007E9170617D9330F0839571E37D9370E3E4
:101D20002A95E1F71124EF90FF900F911F91CF9129
:101D3000DF91992787FD90950895FC0105906150EA
:101D400070400110D8F7809590958E0F9F1F0895D1
:101D5000FC016150704001900110D8F7809590957A
:101D60008E0F9F1F08950F931F93CF93DF93182F0C
:101D7000092FEB018B8181FD03C08FEF9FEF20C006
:101D800082FF10C04E815F812C813D814217530735
:101D90007CF4E881F9819F012F5F3F4F39832883CD
:101DA000108306C0E885F985812F0995892B29F7CD
:101DB0002E813F812F5F3F4F3F832E83812F902FB6
:101DC000DF91CF911F910F9108950F931F93CF93A0
:101DD000DF93CDB7DEB72E970FB6F894DEBF0FBEF8
:101DE000CDBF0D891E8986E08C831A8309838FEF0E
:101DF0009FE79E838D83AE01475E5F4F6F89788D2D
:101E0000CE0101960E947507EF81F885E00FF11F62
:101E100010822E960FB6F894DEBF0FBECDBFDF91B5
:101E2000CF911F910F910895FA01AA27283051F1FF
:101E3000203181F1E8946F936E7F6E5F7F4F8F4FFB
:101E40009F4FAF4FB1E03ED0B4E03CD0670F781F5A
:101E5000891F9A1FA11D680F791F8A1F911DA11D3F
:101E60006A0F711D811D911DA11D20D009F4689478
:101E70003F912AE0269F11243019305D3193DEF620
:101E8000CF010895462F4770405D4193B3E00FD0D6
:101E9000C9F7F6CF462F4F70405D4A3318F0495DC1
:101EA00031FD4052419302D0A9F7EACFB4E0A695A4
:101EB0009795879577956795BA95C9F700976105C6
:101EC000710508959B01AC010A2E0694579547951C
:101ED00037952795BA95C9F7620F731F841F951F11
:081EE000A01D0895F894FFCF46
:101EE800486F6C61610A00256909252E32580A007D
:00000001FF
