:100000000C9446000C9450000C9450000C9450003A
:100010000C9450000C9450000C9450000C94500020
:100020000C9450000C9450000C9450000C94500010
:100030000C9450000C9450000C9450000C94500000
:100040000C9450000C9450000C9450000C945000F0
:100050000C9450000C9450000C9450000C945000E0
:100060000C9452000C9450000C9450000C945000CE
:100070000C9450000C9450000C9450000C945000C0
:100080000C9450000C9450000C94500011241FBE8E
:10009000CFEFD0E4DEBFCDBF0E949C000C94A20045
:1000A0000C9400001F920F920FB60F9211240BB602
:1000B0000F928F939F93EF93FF93E8E7F0E0808197
:1000C00091819093890080938800808191819093A1
:1000D0008B0080938A00FF91EF919F918F910F90F9
:1000E0000BBE0F900FBE0F901F90189580E4809369
:1000F0007C0010927B0081E080937E008BEE8093E9
:100100007A0008958AB180638AB980EB8093800079
:1001100081E1809381008FEF93E09093870080933B
:10012000860080E092E0909389008093880090930D
:100130008B0080938A0008950E9476000E948200BE
:080140007894FFCFF894FFCF83
:00000001FF
