:100000000C9446000C9458000C9458000C94580022
:100010000C9458000C9458000C9458000C94580000
:100020000C9458000C9458000C9458000C945800F0
:100030000C9458000C9458000C9458000C945800E0
:100040000C9458000C9458000C9458000C945800D0
:100050000C9474000C9458000C9458000C945800A4
:100060000C945A000C9458000C9458000C945800AE
:100070000C9458000C9458000C9458000C945800A0
:100080000C9458000C9458000C94580011241FBE76
:10009000CFEFD0E4DEBFCDBF21E0A0E0B1E001C0F2
:1000A0001D92A430B207E1F70E94D5010C94F20131
:1000B0000C9400001F920F920FB60F9211248F9391
:1000C0009F9380917800909179009093890080931C
:1000D000880090938B0080938A009F918F910F905E
:1000E0000FBE0F901F9018951F920F920FB60F9290
:1000F00011242F938F939F932091C6008091030129
:10010000882319F08130B9F086C0822F8F7D813429
:1001100011F481E003C0823419F482E0809302017B
:100120002A3309F078C0109201011092000181E099
:100130008093030170C080ED820F8A3060F480915B
:1001400000019091010182959295907F9827807F80
:100150009827C09710C08FE9820F8630A8F480914D
:1001600000019091010182959295907F9827807F60
:10017000982787559109820F911D27FD9A95909395
:1001800001018093000147C08FEB820F863060F43D
:10019000809100019091010182959295907F98271E
:1001A000807F9827C797E7CF2A3321F02A3011F0B4
:1001B0002D3089F5809102018130A9F4109202015D
:1001C0008091000190910101937090938900809338
:1001D00088008091000190910101937090938B00B1
:1001E00080938A0016C08230A1F41092020180919F
:1001F0000001909101019370909399008093980071
:100200008091000190910101937090939B008093E5
:100210009A00109203019F918F912F910F900FBE22
:100220000F901F90189580E480937C0010927B00C3
:1002300081E080937E008BEE80937A0008958AB1EE
:1002400080638AB984B1806C84B992EB909380000A
:1002500089E18093810090939000809391008FEFCB
:1002600093E090938700809386009093970080930B
:1002700096008FEF91E0909389008093880090938F
:100280008B0080938A0090939900809398009093BC
:100290009B0080939A000895909164009D7F9093B5
:1002A00064001092C50099E19093C4009091C00041
:1002B0009D7F9093C000882321F08091C1008860C9
:1002C00003C08091C100877F8093C1008091C100ED
:1002D000662311F0806101C08F7E8093C100089574
:1002E000882321F08091C100806803C08091C10003
:1002F0008F778093C1000895882321F08091C100F9
:10030000806403C08091C1008F7B8093C1000895F9
:100310009091C00095FFFCCF8093C6000895CF93C5
:10032000DF93EC018991882319F00E948801FACFAC
:10033000DF91CF9108958F708A3010F0895C01C0F1
:10034000805D0C948801CF93C82F82958F700E9496
:100350009B018C2FCF910C949B01CF93DF93EC01E9
:100360008D2F82958F700E949B018D2F0E949B0183
:10037000CE0124E0969587952A95E1F70E949B018E
:100380008C2FDF91CF910C949B01CF92DF92EF9253
:10039000FF926B017C01C7010E94AD01C601FF9075
:1003A000EF90DF90CF900C94AD010E941F0161E0AF
:1003B00081E00E944C0181E00E94700178942FEF4F
:1003C00089E698E1215080409040E1F700C00000AC
:1003D00080918800909189000E94AD018AE00E947E
:0803E0008801EDCFF894FFCF76
:00000001FF
