:100000000C94C7000C94E6000C94E6000C94E800F5
:100010000C94E6000C94E6000C94E6000C94E600C8
:100020000C94E6000C94E6000C94E6000C94E600B8
:100030000C94E6000C94E6000C94E6000C94E600A8
:100040000C94E6000C94E6000C94E6000C94E60098
:100050000C94F7000C94E6000C94E6000C94E60077
:100060000C94E6000C94E6000C94E6000C94E60078
:100070000C94E6000C94E6000C94E6000C94E60068
:100080000C94E6000C94E6000C94E6006E616E00A1
:10009000696E660000407A10F35A00A0724E18098B
:1000A0000010A5D4E80000E87648170000E40B54DF
:1000B000020000CA9A3B000000E1F50500008096AE
:1000C0009800000040420F000000A08601000000E0
:1000D000102700000000E80300000000640000009A
:1000E00000000A00000000000100000000002C7663
:1000F000D888DC674F0823DFC1DFAE59E1B1B7967E
:10010000E5E3E453C63AE651997696E8E6C28426DA
:10011000EB898C9B62ED407C6FFCEFBC9C9F40F2B6
:10012000BAA56FA5F490055A2AF75C936B6CF96732
:100130006DC11BFCE0E40D47FEF520E6B500D0EDF7
:10014000902E0300943577050080841E080000205F
:100150004E0A000000C80C333333330F986E1283FD
:100160001141EF8D2114893BE65516CFFEE6DB18D1
:10017000D1844B381BF77C1D901DA4BBE424203296
:1001800084725E228100C9F124ECA1E53D2711248F
:100190001FBECFEFD0E4DEBFCDBF11E0A0E0B1E0E5
:1001A000EAE5F6E100E00BBF02C007900D92A6332E
:1001B000B107D9F721E0A6E3B1E001C01D92A33455
:1001C000B207E1F70E94ED040C942B0B0C94000095
:1001D0001F920F920FB60F9211248F9381E080939C
:1001E0003A018F910F900FBE0F901F9018951F929C
:1001F0000F920FB60F9211242F938F939F9380919C
:10020000C60090913901992319F0913019F183C0FA
:10021000982F9F7D923511F491E007C0973511F426
:1002200092E003C0933519F493E0909338018A3338
:1002300009F071C080913801833031F41092390196
:1002400081E080933D0103C081E0809339011092E9
:1002500037015FC020ED280F2A3048F48091360125
:1002600090E1899F200D11242093360154C02FE97D
:10027000280F263010F4875505C02FEB280F2630A5
:1002800050F487539091360120E1929F800D112404
:100290008093360140C08A33F1F580913701813077
:1002A00011F178F08230A9F58091360180933C01FC
:1002B00090933E0110923F0110923D01109239013E
:1002C00028C08091360180933B01809138018330B2
:1002D00039F4109237011092390190933D0119C001
:1002E0009093370116C08091360180934001809130
:1002F0003801813059F41092390110923E018093F7
:100300003F0110923D011092380103C082E08093BA
:100310003701109236019F918F912F910F900FBE50
:100320000F901F90189508950F931F93CF93DF930D
:10033000182F062FEA0161E00E940104811117C005
:10034000802F0E942D04811112C08FE99FE0019738
:10035000F1F700C0000060E0812F0E9401048111CC
:1003600006C00E94560488830E94290480E0DF9121
:10037000CF911F910F910895BF92CF92DF92EF928C
:10038000FF920F931F93CF93DF9300D0CDB7DEB7CB
:10039000B82E6B017A018901AE014E5F5F4F63E4B5
:1003A0000E949401882311F08FEF49C0AE014F5F86
:1003B0005F4F64E48B2D0E9494018111F5CFEA8197
:1003C000F0E0FE2FEE278981E82BD601ED93FC9318
:1003D000AE014E5F5F4F65E48B2D0E949401811149
:1003E000E3CFAE014F5F5F4F66E48B2D0E94940117
:1003F0008111DACF6A8170E0762F66278981682BB8
:10040000F70171836083AE014E5F5F4F67E48B2D10
:100410000E9494018111C8CFAE014F5F5F4F68E425
:100420008B2D0E9494018111BFCF8A8190E0982F7B
:1004300088272981822BD8018D939C9380E00F908F
:100440000F90DF91CF911F910F91FF90EF90DF9070
:10045000CF90BF900895CF93DF93D62FC42F61E044
:100460000E940104811113C08D2F0E942D04882346
:1004700011F0880F0CC08C2F0E942D04982F882318
:1004800019F0880F890F03C00E94290480E0DF91D2
:10049000CF910895EF92FF920F931F93CF93DF9325
:1004A000C82FD62F8A01F22E61E00E94010481112B
:1004B00022C08D2F0E942D0481111DC060E08C2F61
:1004C0000E940104811117C0FA94E02EC02FD12F91
:1004D0008C2F8E198F1528F481E00E945604899381
:1004E000F7CFE801CF0DD11D80E00E94560488832C
:1004F0000E94290480E0DF91CF911F910F91FF901E
:10050000EF9008958F929F92AF92BF92CF92DF9219
:10051000EF92FF920F931F93CF93DF93D82FC62FA5
:100520007A01A22E61E00E94010481113EC08C2F4D
:100530000E942D04811139C060E08D2F0E940104BA
:10054000811133C0B12C8501000F111F0150110919
:10055000812C912C892D90E0801791079CF4E70164
:10056000C80DD11DC80DD11DD880C12C81E00E94BD
:1005700056049601282BC9019983888390FC8394A3
:100580009394E8CFE501C150D048CC0FDD1FCE0DCC
:10059000DF1D00E010E0188180E00E945604082B67
:1005A000198308830E94290480E0DF91CF911F9175
:1005B0000F91FF90EF90DF90CF90BF90AF909F9002
:1005C0008F900895EF92FF920F931F93CF93DF9335
:1005D000C62F142FF52E022F61E00E940104811115
:1005E00015C08C2F0E942D04811110C0E12EC12F47
:1005F000DF2D8C2F8E19801730F489910E942D04E5
:100600008823B9F303C00E94290480E0DF91CF91D1
:100610001F910F91FF90EF900895CF93DF9300D03B
:1006200000D000D0CDB7DEB779836A835B834C837B
:100630003D832E8326E0AE014F5F5F4F63E10E9452
:10064000E20226960FB6F894DEBF0FBECDBFDF9153
:10065000CF910895FF920F931F93CF93DF9300D014
:1006600000D000D0CDB7DEB7F82E02E310E09E0137
:100670002F5F3F4FAE014D5F5F4FBE016B5F7F4FFE
:100680008F2D0E94BC018FE19EE40197F1F700C01D
:100690000000015011090115110549F700E011E0B2
:1006A0009E012F5F3F4FAE014D5F5F4FBE016B5FFD
:1006B0007F4F8F2D0E94BC0181111FC08FE19EE4EE
:1006C0000197F1F700C00000015011090115110553
:1006D00039F729813A813195219531094B815C8126
:1006E0005195419551096D817E8171956195710991
:1006F0008F2D0E940D0380E001C08FEF26960FB66C
:10070000F894DEBF0FBECDBFDF91CF911F910F9147
:10071000FF900895CF93DF93D82F0E94F30340E812
:100720006BE68D2F0E942B02C82F2FEF89EF90E0F0
:10073000215080409040E1F700C0000040E06BE6AF
:100740008D2F0E942B02C82B8FE99FE00197F1F7B4
:1007500000C0000041E06AE18D2F0E942B02C82BEF
:1007600044E069E18D2F0E942B02C82B40E16BE130
:100770008D2F0E942B02C82B8D2F0E942A03C82B7D
:1007800040E06CE18D2F0E942B02C82B48E763E20A
:100790008D2F0E942B02C82B40E167E38D2F0E9412
:1007A0002B02C82B8FE99FE00197F1F700C00000F2
:1007B00041E068E38D2F0E942B02C82B44E46AE6D7
:1007C0008D2F0E942B02C82B8FE39FE10197F1F739
:1007D00000C0000044E46AE68D2F0E942B028C2B9F
:1007E000DF91CF910895E4E6F0E080818F778083F8
:1007F000E9EBF0E08081837080838DE08093B80026
:10080000089594EA9093BC009091BC0097FFFCCFB0
:100810009091B900987F983011F09031B1F491E047
:10082000611190E0880F892B8093BB0084E880934E
:10083000BC008091BC0087FFFCCF8091B900887F0D
:10084000883129F0803421F402C0892F089580E096
:10085000089584E98093BC0008958093BB0084E8E8
:100860008093BC008091BC0087FFFCCF8091B900D1
:10087000887F883209F480E008951F93CF93DF9337
:10088000EB01142F61E00E940104115038F0FE01C9
:10089000E10FF11D80810E942D04F7CF84E9809340
:1008A000BC0080E0DF91CF911F910895882311F063
:1008B00084EC01C084E88093BC008091BC0087FF79
:1008C000FCCF8091BB000895909164009D7F909330
:1008D00064001092C50090E19093C4009091C00014
:1008E00092609093C000882321F08091C1008860BD
:1008F00003C08091C100877F8093C1008091C100B7
:10090000662311F0806101C08F7E8093C10008953D
:10091000882321F08091C100806803C08091C100CC
:100920008F778093C1000895882321F08091C100C2
:10093000806403C08091C1008F7B8093C1000895C3
:100940009091C00095FFFCCF8093C6000895CF938F
:10095000DF93EC018991882319F00E94A004FACF5B
:10096000DF91CF9108958F708A3010F0895C01C0BB
:10097000805D0C94A004CF93C82F82958F700E9445
:10098000B3048C2FCF910C94B304CF93DF93EC017D
:100990008D2F82958F700E94B3048D2F0E94B30417
:1009A000CE0124E0969587952A95E1F70E94B3043D
:1009B0008C2FDF91CF910C94B304CF92DF92EF9202
:1009C000FF926B017C01C7010E94C504C601FF9024
:1009D000EF90DF90CF900C94C504CF93DF93CDB709
:1009E000DEB7A2970FB6F894DEBF0FBECDBF81E091
:1009F00084B961E00E94640481E00E94880488E672
:100A00000E948A0390E29093690094E09DBB7894E1
:100A1000289A1F928F9380E091E09F938F938E018D
:100A20000F5F1F4F1F930F930E949E0AC8010E94E1
:100A3000A7040F900F900F900F900F900F9087E0EA
:100A4000C82E81E0D82E5E0181E2A80EB11C96E18D
:100A5000892E91E0992E25E2622E21E0722E80915E
:100A60003E01882331F110923E0140913C0160919A
:100A7000400180913B010E942B0230913C0120916A
:100A8000400190913B011F928F931F923F931F92C1
:100A90002F931F929F93DF92CF921F930F930E94E9
:100AA0009E0AC8010E94A7040FB6F894DEBF0FBECD
:100AB000CDBF80913F01882321F110923F016091C9
:100AC000400180913B01A5010E94940120914001C9
:100AD00090913B011F928F9389A11F928F931F9238
:100AE0002F931F929F939F928F921F930F930E9419
:100AF0009E0AC8010E94A7040FB6F894DEBF0FBE7D
:100B0000CDBF80913D01811106C080913A018823BB
:100B100009F4A5CF2CC010923D0110923B018091A9
:100B20003B0187FDF2CF80913B0161E00E9401040F
:100B30008AA30E9429048AA1811113C080913B01DC
:100B40001F928F937F926F921F930F930E949E0A22
:100B5000C8010E94A7040F900F900F900F900F9064
:100B60000F9080913B018F5F80933B01D8CF109213
:100B70003A0126E0AE014B5E5F4F64E788E60E94D3
:100B80008202882321F08CE291E00E94A704FE01FA
:100B900075967F01F701819191917F010E94C504B3
:100BA0008BE30E94A004EA14FB04A1F78AE00E94F0
:100BB000A00455CF2F923F924F925F926F927F92F7
:100BC0008F929F92AF92BF92CF92DF92EF92FF925D
:100BD0000F931F93CF93DF93CDB7DEB763970FB615
:100BE000F894DEBF0FBECDBF7C011B016A01FC0182
:100BF00017821682838181FF66C3BE016F5F7F4FBC
:100C00004B01F7019381F10193FD859193FF819150
:100C10001F01882309F453C3853239F493FD85916C
:100C200093FF81911F01853239F4B70190E00E9452
:100C30006C0A56016501E5CF10E0512C20E020320E
:100C4000A0F48B3269F030F4803259F0833269F4C9
:100C500020612CC08D3239F0803339F4216026C0F8
:100C60002260246023C0286021C027FD27C030ED0A
:100C7000380F3A3078F426FF06C0FAE01F9F300D97
:100C80001124132F13C06AE0569E300D1124532EE9
:100C900020620CC08E3221F426FD11C3206406C0F0
:100CA0008C3611F4206802C0883641F4F10193FDBE
:100CB000859193FF81911F018111C1CF9BEB980F0B
:100CC000933018F42061805E06C09BE9980F933042
:100CD00008F0AAC12F7E26FF16E02F73722E8536EC
:100CE00021F4F22FF0647F2E08C0863621F4622FA3
:100CF0006068762E02C01111115077FE07C01C33B8
:100D000048F444244394410E27E00BC0183030F4DB
:100D1000212F06C027E04CE3442E03C027E017E054
:100D2000412C560174E0A70EB11CF601608171815F
:100D300082819381042DA4010E947E096C010981A6
:100D400000FF02C003FF06C071FC07C072FC08C0B0
:100D5000612C08C03DE2632E05C02BE2622E02C06A
:100D600090E2692E802F8C7099F1662011F084E05A
:100D700001C083E0851510F0512C0BC0581A73FC8C
:100D800008C0B70180E290E00E946C0A5A94C9F74B
:100D9000F3CF662029F0B701862D90E00E946C0AFF
:100DA00003FD03C000E910E002C00CE810E0F72DDD
:100DB000F0717F2EF8018491882309F476C27110B6
:100DC0008052B70190E00E946C0A0F5F1F4FF2CF74
:100DD00077FE0FC04C0C04FF04C08A81813309F4F4
:100DE0004A94141474F5F8E0F41578F588E0482E68
:100DF0002CC076FC2AC0812F90E08C159D059CF0BC
:100E00006CEFC6166FEFD60674F0772D7068772EEC
:100E10000AC0E2E0F0E0EC0FFD1FE10FF11D808160
:100E2000803319F411501111F4CF77FE0EC0442411
:100E30004394410E812F90E0C816D9062CF41C195A
:100E400004C04424439401C010E077FE07C01C1482
:100E50001D043CF496012F5F3F4F05C025E030E0B4
:100E600002C021E030E0662011F02F5F3F4F1123D8
:100E700031F0412F50E04F5F5F4F240F351F452D5C
:100E800050E02417350714F4521A01C0512C872D55
:100E9000897049F4552039F0B70180E290E00E9452
:100EA0006C0A5A94F7CF662029F0B701862D90E09E
:100EB0000E946C0A73FC09C0552039F0B70180E329
:100EC00090E00E946C0A5A94F7CF77FE5FC09C2D89
:100ED0008D2DD7FE02C090E080E0692E782E40E094
:100EE00050E0C601841991099D878C8796012619C7
:100EF0003709280D391D812F90E0EE27FF27E81BC9
:100F0000F90BFF87EE87FFEF6F167F0669F4B701D5
:100F10008EE290E02B8B3A8B488B598B0E946C0AA7
:100F2000598948893A892B89C614D70454F06C85AD
:100F30007D85661577052CF4F901E40FF51F818195
:100F400001C080E371E0671A71084F5F5F4FEE8563
:100F5000FF856E167F066CF0B70190E02B8B3A8B05
:100F6000488B598B0E946C0A2B893A894889598988
:100F7000CACF6C147D0439F49A81963318F49533F2
:100F800011F404FF81E3B70190E04BC08A81813303
:100F900009F00F7EB70190E00E946C0A111105C0A4
:100FA00074FE18C085E490E017C0B7018EE290E0AF
:100FB0000E946C0A82E066246394680EF401E80FD4
:100FC000F11D8081B70190E00E946C0A115041F33D
:100FD000862DF1CF85E690E0B7010E946C0AD7FC20
:100FE00005C0C114D10439F404FF05C0D194C194E3
:100FF000D1088DE201C08BE2B70190E00E946C0A3B
:1010000080E36AE0C616D1042CF08F5FFAE0CF1AB5
:10101000D108F7CFB70190E00E946C0AB701C60172
:10102000C0960E946C0A41C1833631F0833779F053
:10103000833509F058C021C0560172E0A70EB11CDB
:10104000F6018081898301E010E0640114C056013B
:10105000F2E0AF0EB11CF601C080D18026FF03C0C4
:10106000612F70E002C06FEF7FEFC6012B8B0E94F3
:10107000610A8C012B892F7715C05601F2E0AF0E63
:10108000B11CF601C080D18026FF03C0612F70E043
:1010900002C06FEF7FEFC6012B8B0E94560A8C01B6
:1010A0002B892068722E23FD1AC0852D90E0081729
:1010B0001907A8F4B70180E290E00E946C0A5A94E4
:1010C000F4CFF60177FC859177FE81916F01B7012E
:1010D00090E00E946C0A51105A94015011090115B8
:1010E000110579F7E2C0843611F0893651F55601C1
:1010F00027FF09C0F4E0AF0EB11CF60160817181D9
:10110000828193810AC0F2E0AF0EB11CF6016081CA
:101110007181882777FD8095982F022F0F7697FF92
:1011200008C090958095709561957F4F8F4F9F4F28
:1011300000682AE030E0A4010E94CD0AC82EC81839
:101140003EC0022F853721F40F7E2AE030E01DC01B
:10115000097F8F3691F018F4883559F0B0C0803788
:1011600019F0883711F0ABC0006104FF09C00460BA
:1011700007C024FF08C0066006C028E030E005C0B4
:1011800020E130E002C020E132E0560107FF09C053
:10119000F4E0AF0EB11CF601608171818281938110
:1011A00008C0F2E0AF0EB11CF6016081718180E0F1
:1011B00090E0A4010E94CD0AC82EC8180F7706FF40
:1011C0000BC0202F2E7FC11650F404FF0AC002FD71
:1011D00008C0202F2E7E05C0DC2C202F03C0DC2C65
:1011E00001C0D12E24FF0DC0FE01EC0DF11D808148
:1011F000803311F4297E09C022FF06C0D394D39412
:1012000004C0822F867809F0D39423FD13C020FFF9
:1012100006C01C2DD51418F4150D1D19D52CD51488
:1012200068F4B70180E290E02B8B0E946C0AD394A3
:101230002B89F5CFD51410F45D1801C0512C24FF73
:1012400012C0B70180E390E02B8B0E946C0A2B89BF
:1012500022FF17C021FF03C088E590E002C088E7A5
:1012600090E0B7010CC0822F867859F021FD02C0B2
:1012700080E201C08BE227FD8DE2B70190E00E9481
:101280006C0AC11638F4B70180E390E00E946C0A42
:101290001150F7CFCA94F401EC0DF11D8081B70114
:1012A00090E00E946C0AC110F5CF552009F4C2CC21
:1012B000B70180E290E00E946C0A5A94F6CFF701E1
:1012C0008681978102C08FEF9FEF63960FB6F894E7
:1012D000DEBF0FBECDBFDF91CF911F910F91FF9069
:1012E000EF90DF90CF90BF90AF909F908F907F90C6
:1012F0006F905F904F903F902F900895283008F0A6
:1013000027E03327DA01990F311D87FD91600096A0
:101310006105710539F432602E5F3D9330E32A9503
:10132000E1F708959F3F30F080387105610509F0BD
:101330003C5F3C5F3D93913008F08068911DDF93E6
:10134000CF931F930F93FF92EF92192F987F96954B
:10135000E92F96959695E90FFF27E251FF4F9927C0
:101360003327EE24FF24A701E70105900894079492
:1013700028F4360FE71EF81E491F511D660F771F10
:10138000881F991F0694A1F70590079428F4E70E8B
:10139000F81E491F561FC11D770F881F991F661F12
:1013A0000694A1F70590079428F4F80E491F561FDC
:1013B000C71FD11D880F991F661F771F0694A1F7BD
:1013C0000590079420F4490F561FC71FD81F990F87
:1013D000661F771F881F0694A9F7849110951770D0
:1013E00041F0D695C79557954795F794E7941A9588
:1013F000C1F7E4E9F0E06894159015913591659195
:10140000959105907FE27395E118F10A430B560B15
:10141000C90BD009C0F7E10CF11E431F561FC91FAD
:10142000D01D7EF4703311F48A95E6CFE894015014
:1014300030F0080F0AF40027021708F4202F239534
:10144000022F7A3328F079E37D932A95E9F710C0CB
:101450007D932A9589F60694979567953795179504
:101460001794E118F10A430B560BC90BD00998F0F9
:1014700023957E9173957A3308F070E37C93201363
:10148000B8F77E9170617D9330F0839571E37D9321
:1014900070E32A95E1F71124EF90FF900F911F91CF
:1014A000CF91DF91992787FD90950895FC010590D4
:1014B000615070400110D8F7809590958E0F9F1F56
:1014C0000895FC016150704001900110D8F780959B
:1014D00090958E0F9F1F08950F931F93CF93DF93C7
:1014E000182F092FEB018B8181FD03C08FEF9FEF38
:1014F00020C082FF10C04E815F812C813D81421748
:1015000053077CF4E881F9819F012F5F3F4F3983B6
:101510002883108306C0E885F985812F0995892BDA
:1015200029F72E813F812F5F3F4F3F832E83812FED
:10153000902FDF91CF911F910F9108950F931F93DB
:10154000CF93DF93CDB7DEB72E970FB6F894DEBFFB
:101550000FBECDBF0D891E8986E08C831A83098357
:101560008FEF9FE79E838D83AE01475E5F4F6F894C
:10157000788DCE0101960E94DA05EF81F885E00FA3
:10158000F11F10822E960FB6F894DEBF0FBECDBFAE
:10159000DF91CF911F910F910895FA01AA2728306A
:1015A00051F1203181F1E8946F936E7F6E5F7F4F30
:1015B0008F4F9F4FAF4FB1E03ED0B4E03CD0670FAC
:1015C000781F891F9A1FA11D680F791F8A1F911DFF
:1015D000A11D6A0F711D811D911DA11D20D009F44F
:1015E00068943F912AE0269F11243019305D319391
:1015F000DEF6CF010895462F4770405D4193B3E07A
:101600000FD0C9F7F6CF462F4F70405D4A3318F020
:10161000495D31FD4052419302D0A9F7EACFB4E0D1
:10162000A6959795879577956795BA95C9F7009789
:101630006105710508959B01AC010A2E069457952A
:10164000479537952795BA95C9F7620F731F841F81
:0A165000951FA01D0895F894FFCF28
:10165A00453A2025690A00573A25583A25583A2525
:10166A00583A25580A00523A25583A25583A2558E0
:10167A003A25580A00533A25580D0A006572726FC6
:06168A007220720A00004C
:00000001FF
