:100000000C9446000C9465000C9465000C946700F9
:100010000C9465000C9465000C9465000C946500CC
:100020000C9465000C9465000C9465000C946500BC
:100030000C9465000C9465000C9465000C946500AC
:100040000C9465000C9465000C9465000C9465009C
:100050000C9476000C9465000C9465000C9465007B
:100060000C9465000C9465000C9465000C9465007C
:100070000C9465000C9465000C9465000C9465006C
:100080000C9465000C9465000C94650011241FBE4F
:10009000CFEFD0E4DEBFCDBF11E0A0E0B1E0ECEBEC
:1000A000FFE000E00BBF02C007900D92A633B1073E
:1000B000D9F721E0A6E3B1E001C01D92A334B20755
:1000C000E1F70E9419040C94DC070C9400001F92C5
:1000D0000F920FB60F9211248F9381E080933A0113
:1000E0008F910F900FBE0F901F9018951F920F9237
:1000F0000FB60F9211242F938F939F938091C60078
:1001000090913901992319F0913019F183C0982FFA
:100110009F7D923511F491E007C0973511F492E07C
:1001200003C0933519F493E0909338018A3309F0B2
:1001300071C080913801833031F41092390181E02F
:1001400080933D0103C081E0809339011092370113
:100150005FC020ED280F2A3048F48091360190E1ED
:10016000899F200D11242093360154C02FE9280FB8
:10017000263010F4875505C02FEB280F263050F499
:1001800087539091360120E1929F800D1124809336
:10019000360140C08A33F1F580913701813011F189
:1001A00078F08230A9F58091360180933C019093DC
:1001B0003E0110923F0110923D011092390128C07A
:1001C0008091360180933B0180913801833039F46E
:1001D000109237011092390190933D0119C090930C
:1001E000370116C08091360180934001809138011B
:1001F000813059F41092390110923E0180933F01F1
:1002000010923D011092380103C082E080933701C3
:10021000109236019F918F912F910F900FBE0F90EA
:100220001F90189508950F931F93CF93DF93182F66
:10023000062FEA0161E00E942D03811117C0802F73
:100240000E945903811112C08FE99FE00197F1F7D5
:1002500000C0000060E0812F0E942D03811106C0C4
:100260000E94820388830E94550380E0DF91CF9132
:100270001F910F910895BF92CF92DF92EF92FF925C
:100280000F931F93CF93DF9300D0CDB7DEB7B82E77
:100290006B017A018901AE014E5F5F4F63E40E94FA
:1002A0001301882311F08FEF49C0AE014F5F5F4FFC
:1002B00064E48B2D0E9413018111F5CFEA81F0E0F7
:1002C000FE2FEE278981E82BD601ED93FC93AE013A
:1002D0004E5F5F4F65E48B2D0E9413018111E3CFC8
:1002E000AE014F5F5F4F66E48B2D0E9413018111B9
:1002F000DACF6A8170E0762F66278981682BF70153
:1003000071836083AE014E5F5F4F67E48B2D0E9467
:1003100013018111C8CFAE014F5F5F4F68E48B2D91
:100320000E9413018111BFCF8A8190E0982F882706
:100330002981822BD8018D939C9380E00F900F90A0
:10034000DF91CF911F910F91FF90EF90DF90CF90B1
:10035000BF900895CF93DF93D62FC42F61E00E9402
:100360002D03811113C08D2F0E945903882311F092
:10037000880F0CC08C2F0E945903982F882319F0E6
:10038000880F890F03C00E94550380E0DF91CF9151
:100390000895EF92FF920F931F93CF93DF93C82F8F
:1003A000D62F8A01F22E61E00E942D03811122C016
:1003B0008D2F0E94590381111DC060E08C2F0E9477
:1003C0002D03811117C0FA94E02EC02FD12F8C2F4E
:1003D0008E198F1528F481E00E9482038993F7CF4C
:1003E000E801CF0DD11D80E00E94820388830E9426
:1003F000550380E0DF91CF911F910F91FF90EF9017
:100400000895EF92FF920F931F93CF93DF93C62F20
:10041000142FF52E022F61E00E942D03811115C0CB
:100420008C2F0E945903811110C0E12EC12FDF2DA6
:100430008C2F8E19801730F489910E9459038823DC
:10044000B9F303C00E94550380E0DF91CF911F9163
:100450000F91FF90EF900895CF93DF9300D000D0DD
:1004600000D0CDB7DEB779836A835B834C833D834D
:100470002E8326E0AE014F5F5F4F63E10E940102D1
:1004800026960FB6F894DEBF0FBECDBFDF91CF9199
:100490000895FF920F931F93CF93DF93CDB7DEB7ED
:1004A00027970FB6F894DEBF0FBECDBFF82E02E33C
:1004B00010E09E012F5F3F4FAE014D5F5F4FBE01C9
:1004C0006B5F7F4F8F2D0E943B018F838FE19EE4F6
:1004D0000197F1F700C00000015011090115110545
:1004E00041F700E011E09E012F5F3F4FAE014D5FED
:1004F0005F4FBE016B5F7F4F8F2D0E943B018111CB
:100500001FC08FE19EE40197F1F700C00000015089
:1005100011090115110539F729813A813195219584
:1005200031094B815C815195419551096D817E81E5
:100530007195619571098F2D0E942C0280E001C098
:100540008FEF27960FB6F894DEBF0FBECDBFDF91B9
:10055000CF911F910F91FF900895CF93DF93D82FE4
:100560000E941F0340E86BE68D2F0E94AA01C82F4E
:100570008FE99FE00197F1F700C0000040E06BE6D3
:100580008D2F0E94AA01C82B8FE99FE00197F1F7F8
:1005900000C0000041E06AE18D2F0E94AA01C82B33
:1005A00044E069E18D2F0E94AA01C82B40E16BE174
:1005B0008D2F0E94AA01C82B8D2F0E944902C82BA3
:1005C00048E06BE18D2F0E94AA01C82B40E06CE14E
:1005D0008D2F0E94AA01C82B48E763E28D2F0E944D
:1005E000AA01C82B40E167E38D2F0E94AA01C82B06
:1005F0009FEF29EF80E0915020408040E1F700C05C
:10060000000041E068E38D2F0E94AA01C82B44E45A
:100610006AE68D2F0E94AA01C82B9FEF29EF80E088
:10062000915020408040E1F700C0000044E46AE6B9
:100630008D2F0E94AA018C2BDF91CF910895E4E6C3
:10064000F0E080818F778083E9EBF0E08081837038
:1006500080838DE08093B800089594EA9093BC0065
:100660009091BC0097FFFCCF9091B900987F983093
:1006700011F09031B1F491E0611190E0880F892B75
:100680008093BB0084E88093BC008091BC0087FF0E
:10069000FCCF8091B900887F883129F0803421F423
:1006A00002C0892F089580E0089584E98093BC00FA
:1006B00008958093BB0084E88093BC008091BC00C7
:1006C00087FFFCCF8091B900887F883209F480E0F1
:1006D00008951F93CF93DF93EB01142F61E00E94E5
:1006E0002D03115038F0FE01E10FF11D80810E94B1
:1006F0005903F7CF84E98093BC0080E0DF91CF916C
:100700001F910895882311F084EC01C084E8809340
:10071000BC008091BC0087FFFCCF8091BB00089596
:10072000909164009D7F909364001092C50090E1C9
:100730009093C4009091C00092609093C000882371
:1007400021F08091C100886003C08091C100877F43
:100750008093C1008091C100662311F0806101C0C7
:100760008F7E8093C1000895882321F08091C1007D
:10077000806803C08091C1008F778093C100089585
:10078000882321F08091C100806403C08091C10062
:100790008F7B8093C10008959091C00095FFFCCF9E
:1007A0008093C6000895CF93DF93EC01899188234D
:1007B00019F00E94CC03FACFDF91CF9108958F708A
:1007C0008A3010F0895C01C0805D0C94CC03CF931B
:1007D000C82F82958F700E94DF038C2FCF910C94CD
:1007E000DF03CF93DF93EC018D2F82958F700E94F2
:1007F000DF038D2F0E94DF03CE0124E096958795BD
:100800002A95E1F70E94DF038C2FDF91CF910C94A2
:10081000DF03CF92DF92EF92FF926B017C01C70161
:100820000E94F103C601FF90EF90DF90CF900C94EF
:10083000F103CF93DF93CDB7DEB7A3970FB6F8944C
:10084000DEBF0FBECDBF81E084B961E00E9490039E
:1008500081E00E94B40388E60E94AD0290E290938A
:10086000690094E09DBB7894289A1F928F9380E052
:1008700091E09F938F938E010F5F1F4F1F930F93F4
:100880000E940C05C8010E94D3030F900F900F9097
:100890000F900F900F9087E0C82E81E0D82E5E0158
:1008A00082E2A80EB11C96E1892E91E0992E25E2F4
:1008B000622E21E0722E80913E01882331F1109248
:1008C0003E0140913C016091400180913B010E94BA
:1008D000AA0130913C012091400190913B011F926F
:1008E0008F931F923F931F922F931F929F93DF929C
:1008F000CF921F930F930E940C05C8010E94D3034F
:100900000FB6F894DEBF0FBECDBF80913F018823A4
:1009100021F110923F016091400180913B01A501BE
:100920000E9413012091400190913B011F928F93EF
:100930008AA11F928F931F922F931F929F939F9232
:100940008F921F930F930E940C05C8010E94D3033E
:100950000FB6F894DEBF0FBECDBF80913D0181116F
:1009600006C080913A01882309F4A5CF2CC01092CB
:100970003D0110923B0180913B0187FDF2CF8091B8
:100980003B0161E00E942D038BA30E9455038BA1C4
:10099000811113C080913B011F928F937F926F92C0
:1009A0001F930F930E940C05C8010E94D3030F9060
:1009B0000F900F900F900F900F9080913B018F5FE1
:1009C00080933B01D8CF10923A012CE0AE014B5EF0
:1009D0005F4F64E788E60E94C901882321F08CE21A
:1009E00091E00E94D303FE0176967F01F7013197D3
:1009F00080810E94E703F70180810E94E7038BE377
:100A00000E94CC03F2E0EF0EF11CEA14FB0471F734
:100A10008AE00E94CC034FCF0F931F93CF93DF93B5
:100A2000CDB7DEB72E970FB6F894DEBF0FBECDBFA1
:100A30000D891E8986E08C831A8309838FEF9FE7D7
:100A40009E838D83AE01475E5F4F6F89788DCE01A7
:100A500001960E943B05EF81F885E00FF11F10829F
:100A60002E960FB6F894DEBF0FBECDBFDF91CF91AB
:100A70001F910F9108952F923F924F925F926F9224
:100A80007F928F929F92AF92BF92CF92DF92EF921E
:100A9000FF920F931F93CF93DF93CDB7DEB72C97C1
:100AA0000FB6F894DEBF0FBECDBF7C016B018A018B
:100AB000FC0117821682838181FFBDC1CE010196A0
:100AC0004C01F7019381F60193FD859193FF81918C
:100AD0006F01882309F4ABC1853239F493FD859108
:100AE00093FF81916F01853229F4B70190E00E9454
:100AF0004C07E7CF512C312C20E02032A0F48B3270
:100B000069F030F4803259F0833269F420612CC0EE
:100B10008D3239F0803339F4216026C022602460A0
:100B200023C0286021C027FD27C030ED380F3A30A0
:100B300078F426FF06C0FAE05F9E300D1124532E94
:100B400013C08AE0389E300D1124332E20620CC071
:100B50008E3221F426FD6BC1206406C08C3611F460
:100B6000206802C0883641F4F60193FD859193FF19
:100B700081916F018111C1CF982F9F7D9554933042
:100B800028F40C5F1F4FFFE3F9830DC0833631F06B
:100B9000833771F0833509F05BC022C0F801808192
:100BA00089830E5F1F4F44244394512C540115C078
:100BB0003801F2E06F0E711CF801A080B18026FFB1
:100BC00003C0652D70E002C06FEF7FEFC5012C8779
:100BD0000E9441072C0183012C852F77222E17C0FC
:100BE0003801F2E06F0E711CF801A080B18026FF81
:100BF00003C0652D70E002C06FEF7FEFC5012C8749
:100C00000E9436072C012C852068222E830123FCAC
:100C10001BC0832D90E048165906B0F4B70180E25E
:100C200090E00E944C073A94F4CFF50127FC85919F
:100C300027FE81915F01B70190E00E944C073110BF
:100C40003A94F1E04F1A51084114510471F7E5C08C
:100C5000843611F0893639F5F80127FF07C0608125
:100C60007181828193810C5F1F4F08C06081718107
:100C7000882777FD8095982F0E5F1F4F2F76B22E15
:100C800097FF09C090958095709561957F4F8F4F24
:100C90009F4F2068B22E2AE030E0A4010E947E0718
:100CA000A82EA81844C0853729F42F7EB22E2AE03A
:100CB00030E025C0F22FF97FBF2E8F36C1F018F437
:100CC000883579F0B4C0803719F0883721F0AFC08B
:100CD0002F2F2061B22EB4FE0DC08B2D8460B82E54
:100CE00009C024FF0AC09F2F9660B92E06C028E0D5
:100CF00030E005C020E130E002C020E132E0F80140
:100D0000B7FE07C060817181828193810C5F1F4FA4
:100D100006C06081718180E090E00E5F1F4FA401EA
:100D20000E947E07A82EA818FB2DFF77BF2EB6FEC7
:100D30000BC02B2D2E7FA51450F4B4FE0AC0B2FCBC
:100D400008C02B2D2E7E05C07A2C2B2D03C07A2CAB
:100D500001C0752C24FF0DC0FE01EA0DF11D80813C
:100D6000803311F4297E09C022FF06C07394739466
:100D700004C0822F867809F0739423FD13C020FFEE
:100D800006C05A2C731418F4530C5718732C731490
:100D900068F4B70180E290E02C870E944C077394BE
:100DA0002C85F5CF731410F4371801C0312C24FFB3
:100DB00012C0B70180E390E02C870E944C072C857D
:100DC00022FF17C021FF03C088E590E002C088E73A
:100DD00090E0B7010CC0822F867859F021FD02C047
:100DE00080E201C08BE227FD8DE2B70190E00E9416
:100DF0004C07A51438F4B70180E390E00E944C073B
:100E00005A94F7CFAA94F401EA0DF11D8081B7013D
:100E100090E00E944C07A110F5CF332009F451CE89
:100E2000B70180E290E00E944C073A94F6CFF701B8
:100E30008681978102C08FEF9FEF2C960FB6F894B2
:100E4000DEBF0FBECDBFDF91CF911F910F91FF90FD
:100E5000EF90DF90CF90BF90AF909F908F907F905A
:100E60006F905F904F903F902F900895FC010590F8
:100E7000615070400110D8F7809590958E0F9F1F9C
:100E80000895FC016150704001900110D8F78095E1
:100E900090958E0F9F1F08950F931F93CF93DF930D
:100EA000182F092FEB018B8181FD03C08FEF9FEF7E
:100EB00020C082FF10C04E815F812C813D8142178E
:100EC00053077CF4E881F9819F012F5F3F4F3983FD
:100ED0002883108306C0E885F985812F0995892B21
:100EE00029F72E813F812F5F3F4F3F832E83812F34
:100EF000902FDF91CF911F910F910895FA01AA27AA
:100F0000283051F1203181F1E8946F936E7F6E5F4C
:100F10007F4F8F4F9F4FAF4FB1E03ED0B4E03CD0FA
:100F2000670F781F891F9A1FA11D680F791F8A1FDD
:100F3000911DA11D6A0F711D811D911DA11D20D044
:100F400009F468943F912AE0269F11243019305DFE
:100F50003193DEF6CF010895462F4770405D4193EF
:100F6000B3E00FD0C9F7F6CF462F4F70405D4A333C
:100F700018F0495D31FD4052419302D0A9F7EACF04
:100F8000B4E0A6959795879577956795BA95C9F733
:100F900000976105710508959B01AC010A2E069426
:100FA0005795479537952795BA95C9F7620F731FDF
:0C0FB000841F951FA01D0895F894FFCF2A
:100FBC00453A2025690A00573A25583A25583A25CA
:100FCC00583A25580A00523A25583A25583A255885
:100FDC003A25580A00533A25580D0A006572726F6B
:060FEC007220720A0000F1
:00000001FF
