:100000000C9446000C9465000C9465000C946700F9
:100010000C9465000C9465000C9465000C946500CC
:100020000C9465000C9465000C9465000C946500BC
:100030000C9465000C9465000C9465000C946500AC
:100040000C9465000C9465000C9465000C9465009C
:100050000C9476000C9465000C9465000C9465007B
:100060000C9465000C9465000C9465000C9465007C
:100070000C9465000C9465000C9465000C9465006C
:100080000C9465000C9465000C94650011241FBE4F
:10009000CFEFD0E4DEBFCDBF11E0A0E0B1E0E0EAF9
:1000A000FCE000E00BBF02C007900D92A433B10743
:1000B000D9F721E0A4E3B1E001C01D92AF33B2074C
:1000C000E1F70E948C020C944E060C9400001F92E3
:1000D0000F920FB60F9211248F9381E08093380115
:1000E0008F910F900FBE0F901F9018951F920F9237
:1000F0000FB60F9211242F938F939F938091C60078
:1001000090913701992319F0913019F183C0982FFC
:100110009F7D923511F491E007C0973511F492E07C
:1001200003C0933519F493E0909336018A3309F0B4
:1001300071C080913601833031F41092370181E033
:1001400080933B0103C081E0809337011092350119
:100150005FC020ED280F2A3048F48091340190E1EF
:10016000899F200D11242093340154C02FE9280FBA
:10017000263010F4875505C02FEB280F263050F499
:1001800087539091340120E1929F800D1124809338
:10019000340140C08A33F1F580913501813011F18D
:1001A00078F08230A9F58091340180933A019093E0
:1001B0003C0110923D0110923B011092370128C082
:1001C000809134018093390180913601833039F474
:1001D000109235011092370190933B0119C0909312
:1001E000350116C08091340180933E018091360123
:1001F000813059F41092370110923C0180933D01F7
:1002000010923B011092360103C082E080933501C9
:10021000109234019F918F912F910F900FBE0F90EC
:100220001F9018950F931F93CF93DF93182F062FCE
:10023000EA0161E00E94C801811117C0802F0E946D
:10024000F401811112C08FE99FE00197F1F700C01E
:10025000000060E0812F0E94C801811106C00E9449
:100260001D0288830E94F00180E0DF91CF911F91F1
:100270000F910895CF93DF93D62FC42F61E00E9492
:10028000C801811113C08D2F0E94F401882311F041
:10029000880F0CC08C2F0E94F401982F882319F02E
:1002A000880F890F03C00E94F00180E0DF91CF9199
:1002B0000895CF93C82F0E94BA0140E06BE68C2FBF
:1002C0000E943A018FE99FE00197F1F700C000001A
:1002D00041E06AE18C2F0E943A0144E069E18C2FF1
:1002E0000E943A0140E06BE18C2F0E943A0140E805
:1002F0006CE18C2F0E943A0140E167E38C2FCF9193
:100300000C943A01EF92FF920F931F93CF93DF93D8
:10031000C82FD62F8A01F22E61E00E94C8018111F8
:1003200022C08D2F0E94F40181111DC060E08C2F2E
:100330000E94C801811117C0FA94E02EC02FD12F5E
:100340008C2F8E198F1528F481E00E941D0289934D
:10035000F7CFE801CF0DD11D80E00E941D028883F8
:100360000E94F00180E0DF91CF911F910F91FF90EB
:10037000EF900895E4E6F0E080818F778083E9EBE9
:10038000F0E08081837080838DE08093B8000895D1
:1003900094EA9093BC009091BC0097FFFCCF9091A1
:1003A000B900987F983011F09031B1F491E061116B
:1003B00090E0880F892B8093BB0084E88093BC0079
:1003C0008091BC0087FFFCCF8091B900887F883185
:1003D00029F0803421F402C0892F089580E0089527
:1003E00084E98093BC0008958093BB0084E88093E7
:1003F000BC008091BC0087FFFCCF8091B900887F52
:10040000883209F480E008951F93CF93DF93EB01C6
:10041000142F61E00E94C801115038F0FE01E10F75
:10042000F11D80810E94F401F7CF84E98093BC0024
:1004300080E0DF91CF911F910895882311F084EC23
:1004400001C084E88093BC008091BC0087FFFCCF92
:100450008091BB000895909164009D7F909364000B
:100460001092C50090E19093C4009091C0009260FA
:100470009093C000882321F08091C100886003C060
:100480008091C100877F8093C1008091C100662365
:1004900011F0806101C08F7E8093C1000895882390
:1004A00021F08091C100806803C08091C1008F77E6
:1004B0008093C1000895882321F08091C100806459
:1004C00003C08091C1008F7B8093C10008959091FB
:1004D000C00095FFFCCF8093C6000895CF93DF93B3
:1004E000EC018991882319F00E946702FACFDF910D
:1004F000CF9108958F708A3010F0895C01C0805DC3
:100500000C946702CF93C82F82958F700E947A0255
:100510008C2FCF910C947A02CF93DF93CDB7DEB7B7
:10052000A3970FB6F894DEBF0FBECDBF81E084B9AC
:1005300061E00E942B0281E00E944F0280E28093E2
:1005400069001DBA789488E60E9459011F928F9322
:1005500080E091E09F938F938E010F5F1F4F1F9359
:100560000F930E947E03C8010E946E020F900F90AD
:100570000F900F900F900F9087E0C82E81E0D82E3B
:100580005E0182E2A80EB11C96E1892E91E0992EBF
:1005900025E2622E21E0722E80913C01882331F108
:1005A00010923C0140913A0160913E0180913901E5
:1005B0000E943A0130913A0120913E019091390117
:1005C0001F928F931F923F931F922F931F929F937F
:1005D000DF92CF921F930F930E947E03C8010E9467
:1005E0006E020FB6F894DEBF0FBECDBF80913D0105
:1005F000882321F110923D0160913E0180913901E3
:10060000A5010E94120120913E01909139011F9293
:100610008F938AA11F928F931F922F931F929F9364
:100620009F928F921F930F930E947E03C8010E9496
:100630006E020FB6F894DEBF0FBECDBF80913B01B6
:10064000811106C080913801882309F4A5CF2CC000
:1006500010923B01109239018091390187FDF2CF50
:100660008091390161E00E94C8018BA30E94F001D2
:100670008BA1811113C0809139011F928F937F92BA
:100680006F921F930F930E947E03C8010E946E0217
:100690000F900F900F900F900F900F908091390155
:1006A0008F5F80933901D8CF1092380128982CE0C1
:1006B000AE014B5E5F4F64E788E60E9482018823AB
:1006C00021F08CE291E00E946E02FE0176967F019D
:1006D000F701319780810E948202F70180810E9498
:1006E00082028BE30E946702F2E0EF0EF11CEA1433
:1006F000FB0471F78AE00E9467024ECF0F931F93AD
:10070000CF93DF93CDB7DEB72E970FB6F894DEBF49
:100710000FBECDBF0D891E8986E08C831A830983A5
:100720008FEF9FE79E838D83AE01475E5F4F6F899A
:10073000788DCE0101960E94AD03EF81F885E00F20
:10074000F11F10822E960FB6F894DEBF0FBECDBFFC
:10075000DF91CF911F910F9108952F923F924F9269
:100760005F926F927F928F929F92AF92BF92CF9241
:10077000DF92EF92FF920F931F93CF93DF93CDB74A
:10078000DEB72C970FB6F894DEBF0FBECDBF7C014D
:100790006B018A01FC0117821682838181FFBDC132
:1007A000CE0101964C01F7019381F60193FD8591ED
:1007B00093FF81916F01882309F4ABC1853239F42D
:1007C00093FD859193FF81916F01853229F4B701E3
:1007D00090E00E94BE05E7CF512C312C20E0203262
:1007E000A0F48B3269F030F4803259F0833269F42E
:1007F00020612CC08D3239F0803339F4216026C05D
:100800002260246023C0286021C027FD27C030ED6E
:10081000380F3A3078F426FF06C0FAE05F9E300DBC
:100820001124532E13C08AE0389E300D1124332E2C
:1008300020620CC08E3221F426FD6BC1206406C0FC
:100840008C3611F4206802C0883641F4F60193FD1D
:10085000859193FF81916F018111C1CF982F9F7D69
:100860009554933028F40C5F1F4FFFE3F9830DC0BC
:10087000833631F0833771F0833509F05BC022C0D5
:10088000F801808189830E5F1F4F44244394512CCB
:10089000540115C03801F2E06F0E711CF801A08000
:1008A000B18026FF03C0652D70E002C06FEF7FEFBF
:1008B000C5012C870E94B3052C0183012C852F775D
:1008C000222E17C03801F2E06F0E711CF801A080D3
:1008D000B18026FF03C0652D70E002C06FEF7FEF8F
:1008E000C5012C870E94A8052C012C852068222E8A
:1008F000830123FC1BC0832D90E048165906B0F4F9
:10090000B70180E290E00E94BE053A94F4CFF50171
:1009100027FC859127FE81915F01B70190E00E943D
:10092000BE0531103A94F1E04F1A510841145104B8
:1009300071F7E5C0843611F0893639F5F80127FFE3
:1009400007C060817181828193810C5F1F4F08C055
:1009500060817181882777FD8095982F0E5F1F4FEA
:100960002F76B22E97FF09C090958095709561956E
:100970007F4F8F4F9F4F2068B22E2AE030E0A401B6
:100980000E94F005A82EA81844C0853729F42F7EB0
:10099000B22E2AE030E025C0F22FF97FBF2E8F362D
:1009A000C1F018F4883579F0B4C0803719F0883771
:1009B00021F0AFC02F2F2061B22EB4FE0DC08B2DC1
:1009C0008460B82E09C024FF0AC09F2F9660B92EFC
:1009D00006C028E030E005C020E130E002C020E1A0
:1009E00032E0F801B7FE07C0608171818281938196
:1009F0000C5F1F4F06C06081718180E090E00E5F48
:100A00001F4FA4010E94F005A82EA818FB2DFF7708
:100A1000BF2EB6FE0BC02B2D2E7FA51450F4B4FEB6
:100A20000AC0B2FC08C02B2D2E7E05C07A2C2B2DBF
:100A300003C07A2C01C0752C24FF0DC0FE01EA0D05
:100A4000F11D8081803311F4297E09C022FF06C088
:100A50007394739404C0822F867809F0739423FDF5
:100A600013C020FF06C05A2C731418F4530C5718E7
:100A7000732C731468F4B70180E290E02C870E9415
:100A8000BE0573942C85F5CF731410F4371801C08C
:100A9000312C24FF12C0B70180E390E02C870E9424
:100AA000BE052C8522FF17C021FF03C088E590E01A
:100AB00002C088E790E0B7010CC0822F867859F019
:100AC00021FD02C080E201C08BE227FD8DE2B7016B
:100AD00090E00E94BE05A51438F4B70180E390E0D1
:100AE0000E94BE055A94F7CFAA94F401EA0DF11DB5
:100AF0008081B70190E00E94BE05A110F5CF3320A0
:100B000009F451CEB70180E290E00E94BE053A940C
:100B1000F6CFF7018681978102C08FEF9FEF2C9669
:100B20000FB6F894DEBF0FBECDBFDF91CF911F91FE
:100B30000F91FF90EF90DF90CF90BF90AF909F907C
:100B40008F907F906F905F904F903F902F9008957F
:100B5000FC010590615070400110D8F78095909588
:100B60008E0F9F1F0895FC0161507040019001108D
:100B7000D8F7809590958E0F9F1F08950F931F9320
:100B8000CF93DF93182F092FEB018B8181FD03C0D9
:100B90008FEF9FEF20C082FF10C04E815F812C81BC
:100BA0003D81421753077CF4E881F9819F012F5F53
:100BB0003F4F39832883108306C0E885F985812F4C
:100BC0000995892B29F72E813F812F5F3F4F3F8366
:100BD0002E83812F902FDF91CF911F910F91089538
:100BE000FA01AA27283051F1203181F1E8946F935E
:100BF0006E7F6E5F7F4F8F4F9F4FAF4FB1E03ED004
:100C0000B4E03CD0670F781F891F9A1FA11D680FA1
:100C1000791F8A1F911DA11D6A0F711D811D911DD4
:100C2000A11D20D009F468943F912AE0269F112449
:100C30003019305D3193DEF6CF010895462F4770AD
:100C4000405D4193B3E00FD0C9F7F6CF462F4F7008
:100C5000405D4A3318F0495D31FD4052419302D066
:100C6000A9F7EACFB4E0A69597958795779567950C
:100C7000BA95C9F700976105710508959B01AC010C
:100C80000A2E06945795479537952795BA95C9F733
:100C9000620F731F841F951FA01D0895F894FFCF46
:100CA000453A2025690A00573A25583A25583A25E9
:100CB000583A25580A00523A25583A25583A2558A4
:100CC0003A25580A00533A25580D0A006572726F8A
:040CD000720A0000A4
:00000001FF
